:020000040800F2
:100000000000022035D4000805CA000807CA00080D
:1000100009CA00080BCA00080DCA00080000000049
:100020000000000000000000000000000FCA0008EF
:1000300011CA00080000000013CA000815CA000811
:1000400089D4000889D4000889D4000889D400081C
:1000500089D4000889D4000889D4000889D400080C
:1000600089D4000889D4000889D400081DCA000872
:100070002DCA00083DCA00084DCA00085DCA000824
:1000800089D4000889D4000889D400086DCA000802
:100090007DCA000889D4000889D4000889D40008E2
:1000A00089D400088DCA000889D4000889D40008C2
:1000B00089D4000889D4000889D4000889D40008AC
:1000C00089D4000889D4000889D4000889D400089C
:1000D00089D400089DCA000889D4000889D4000882
:1000E00089D4000889D400080000000089D40008E1
:1000F00089D4000889D4000889D4000889D400086C
:1001000089D4000889D4000889D4000889D400085B
:1001100089D40008ADCA0008BDCA000889D4000807
:1001200089D4000889D4000889D4000889D400083B
:1001300089D4000889D4000889D4000889D400082B
:1001400000000000000000000000000000000000AF
:1001500089D4000889D4000889D4000889D400080B
:1001600089D4000889D4000889D4000889D40008FB
:1001700089D40008CDCA000889D400080000000016
:1001800089D4000889D40008DDCA000889D4000891
:1001900089D4000889D40008EDCA000889D4000871
:1001A00089D4000889D4000889D400080000000020
:1001B00089D4000889D4000889D4000889D40008AB
:1001C00089D4000889D40008000000000000000065
:1001D000000000000000000089D4000800000000BA
:1001E000000000000000000000000000000000000F
:1001F000000000000000000089D4000889D4000835
:1002000089D4000889D400080000000089D40008BF
:1002100089D4000889D4000889D4000889D400084A
:1002200089D400080000000089D400080000000004
:1002300089D4000889D400080000000089D400088F
:1002400089D40008FDCA000889D4000889D40008B0
:1002500089D4000889D4000889D4000889D400080A
:1002600089D4000889D4000889D4000889D40008FA
:1002700089D4000889D4000889D40008000000004F
:1002800089D4000889D4000889D4000889D40008DA
:100290000000000089D4000889D400080000000094
:1002A0000000000089D4000889D4000889D400081F
:1002B00089D4000889D4000889D4000889D40008AA
:0C02C0000DCB000889D4000889D4000888
:1002D00081F0004102E000BF83F0004330B54FEAF7
:1002E00041044FEA430594EA050F08BF90EA020F64
:1002F0001FBF54EA000C55EA020C7FEA645C7FEAF7
:10030000655C00F0E2804FEA5454D4EB5555B8BF19
:100310006D420CDD2C4480EA020281EA030382EA8A
:10032000000083EA010180EA020281EA0303362D1C
:1003300088BF30BD11F0004F4FEA01314FF4801CEF
:100340004CEA113102D0404261EB410113F0004F01
:100350004FEA03334CEA133302D0524263EB4303B8
:1003600094EA050F00F0A780A4F10104D5F1200E56
:100370000DDB02FA0EFC22FA05F2801841F10001B1
:1003800003FA0EF2801843FA05F359410EE0A5F185
:1003900020050EF1200E012A03FA0EFC28BF4CF0B6
:1003A000020C43FA05F3C01851EBE37101F000456C
:1003B00007D54FF0000EDCF1000C7EEB00006EEB79
:1003C0000101B1F5801F1BD3B1F5001F0CD3490803
:1003D0005FEA30004FEA3C0C04F101044FEA44525A
:1003E00012F5800F80F09A80BCF1004F08BF5FEAE1
:1003F000500C50F1000041EB045141EA050130BDC1
:100400005FEA4C0C404141EB0101013C28BFB1F5D2
:10041000801FE9D291F0000F04BF01460020B1FA1D
:1004200081F308BF2033A3F10B03B3F120020CDAF0
:100430000C3208DD02F1140CC2F10C0201FA0CF0CE
:1004400021FA02F10CE002F11402D8BFC2F1200C33
:1004500001FA02F120FA0CFCDCBF41EA0C019040E9
:10046000E41AA2BF01EB0451294330BD6FEA040432
:100470001F3C1CDA0C340EDC04F11404C4F120021D
:1004800020FA04F001FA02F340EA030021FA04F32F
:1004900045EA030130BDC4F10C04C4F1200220FA86
:1004A00002F001FA04F340EA0300294630BD21FAC4
:1004B00004F0294630BD94F0000F83F4801306BF8A
:1004C00081F480110134013D4EE77FEA645C18BF7E
:1004D0007FEA655C29D094EA050F08BF90EA020F15
:1004E00005D054EA000C04BF1946104630BD91EA0D
:1004F000030F1EBF0021002030BD5FEA545C05D110
:100500004000494128BF41F0004130BD14F580044E
:100510003CBF01F5801130BD01F0004545F0FE41C2
:1005200041F470014FF0000030BD7FEA645C1ABFF7
:10053000194610467FEA655C1CBF0B46024650EA2E
:10054000013406BF52EA033591EA030F41F400215A
:1005500030BD00BF90F0000F04BF0021704730B5E0
:100560004FF4806404F132044FF000054FF00001B5
:1005700050E700BF90F0000F04BF0021704730B576
:100580004FF4806404F1320410F0004548BF40424B
:100590004FF000013EE700BF42004FEAE2014FEAA0
:1005A00031014FEA02701FBF12F07F4393F07F4F7B
:1005B00081F06051704732F07F4208BF704793F07E
:1005C0007F4F04BF41F40021704730B54FF4607491
:1005D00001F0004521F000411CE700BF50EA010294
:1005E00008BF704730B54FF000050AE050EA01023D
:1005F00008BF704730B511F0004502D5404261EBAD
:1006000041014FF4806404F132045FEA915C3FF4ED
:10061000D8AE4FF003025FEADC0C18BF03325FEA8A
:10062000DC0C18BF033202EBDC02C2F1200300FA3B
:1006300003FC20FA02F001FA03FE40EA0E0021FA60
:1006400002F11444BDE600BF53B94AB9002908BFFE
:1006500000281CBF4FF0FF314FF0FF3000F00CB806
:10066000ADF1080C6DE904CE0DF06EFADDF804E092
:10067000DDE9022304B07047704700BF0348044B14
:10068000834202D0034B03B1184770478401002016
:1006900084010020000000000548064B1B1AD90FFA
:1006A00001EBA301491002D0034B03B11847704777
:1006B00084010020840100200000000010B5064CD9
:1006C000237843B9FFF7DAFF044B13B10448AFF3C3
:1006D00000800123237010BD840100200000000071
:1006E000C0DE000808B5054B1BB105490548AFF34E
:1006F0000080BDE80840FFF7CFBF00BF000000004A
:1007000088010020C0DE00082B4AD2F8883043F46C
:100710007003C2F88830294B1B6803F00F03062BC7
:1007200006D8264A136823F00F0343F0070313602B
:10073000234B1A6842F001021A6000221A611968FC
:10074000204A0A401A601D4B1B6813F0080F06D0A0
:100750001A4A136823F00F0343F007031360184B82
:1007600000229A61DA611A62174999621749D962BF
:10077000174919635A639963DA6319645A641968EB
:1007800021F4802119601A66D3F8D43013F4805F05
:1007900010D10B4BD3F8D42042F48052C3F8D420AC
:1007A0000C4A43F2D2011160D3F8D42022F48052D3
:1007B000C3F8D420704700BF00ED00E000200052D5
:1007C000004402587FEDF6EA000202020000FF0139
:1007D0008002010100400052054AD36843F0020341
:1007E000D360034B5B6813F4005FFAD0704700BF1F
:1007F000004802582DE9F04383B0D0F8008001EBA7
:10080000C10300EB83039A6A5B6A9A4254D8074695
:100810000C469B1A01EBC10200EB8202D2699A429C
:1008200000D31A4602F103094FEA990915E006F1CF
:1008300003094FEA9909BB7904EBC40507EB850569
:10084000296A0093B3B2E2B2404601F08CF92B6AF8
:1008500033442B62AB6A3344AB6208EB441303F5B9
:1008600010639B699BB24B4512D304EBC40307EBA7
:1008700083039A6A5B6A9A420AD24BB19B1A04EBD1
:10088000C40207EB8202D6699E42D0D31E46CEE751
:1008900004EBC40307EB83077A6ABB6A9A420FD85A
:1008A00004F00F040122A240D8F8343823EA0203EE
:1008B000C8F83438002000E0012003B0BDE8F08320
:1008C0000020FAE730B583B0002800F084800446A9
:1008D0000268424B9A4203D0862141480BF010FF38
:1008E00094F89534ABB1032384F89534206800F074
:1008F000EFFE237C8DF80030231D0ECB206800F026
:100900001DFE60B1022384F895340125284603B00A
:1009100030BD84F8943420460CF0B8FDE3E70021A4
:10092000206801F036FB0246B8B9034620799842A8
:1009300018D903EBC30104EB8101012048750B7545
:10094000CB8500200876C861086203EBC30104EB85
:10095000810148620133DBB2E8E7022384F8953471
:100960000125D3E7904217D902EBC20304EB8303BE
:10097000002183F8551283F8542283F85812C3F8E3
:100980005C12C3F8601202EBC20304EB8303C3F8EA
:1009900064120132D2B2E5E7237C8DF80030231DCA
:1009A0000ECB206800F0EAFE054658B900236374B8
:1009B000012384F89534237B012B08D0206801F0B3
:1009C000A7FAA3E7022384F8953401259EE7204681
:1009D00000F07AFDF2E7012598E700BF000004402F
:1009E00034DF0008036890F89424012A1AD010B567
:1009F0000446012280F89424DA6812F0400F02D0F5
:100A0000427B012A09D0206800F05CFE206801F0DA
:100A100071FA002084F8940410BD9A6B42F480327D
:100A20009A63F0E70220704770B504460D460068EF
:100A3000066C00EB411303F530639A68A179012934
:100A400011D038498E4256D03DB905EBC50304EBB1
:100A50008303D3F86432002B5ED0E9B220460CF059
:100A600063FD002070BD12F0080F09D02E498E42A0
:100A7000F7D912F4004FF4D04FF400429A60F0E737
:100A800012F0200F02D020229A60EAE712F0280F1D
:100A9000E7D125498E4206D912F4004F03D04FF416
:100AA00000429A60DDE705EBC50204EB8202D2F852
:100AB00074121B69C3F31203CB1AC2F868327DB9F2
:100AC00005EBC50204EB8202D2F864226AB105EBA1
:100AD000C50204EB8202D2F860121944C2F8601217
:100AE000E9B220460CF020FDBBE704F29C42012154
:100AF00001F08EFAF4E712F4004F03D04FF40042F5
:100B00009A60AEE712F0200F01D020229A60E9B27D
:100B100020460CF009FDA4E704F29C42002101F0FC
:100B200077FA9AE70A31544F0A30544F38B50446E1
:100B300003681D6C03EB4113D3F8081B0E4A954262
:100B400007D903F5306311F4004F02D04FF400428F
:100B50009A6020460CF0E0FC074B9D4202D9A37935
:100B6000012B01D0002038BD04F29C4201212068F5
:100B700001F04EFAF6E700BF0A30544F90F8943473
:100B8000012B0CD010B50446012380F89434417435
:100B9000006801F09FF9002084F8940410BD022041
:100BA000704738B505468C4611F0800F2BD101F007
:100BB0000F0E0EEBCE04A40004F514740444211DA2
:100BC0000EEBCE0E00EB8E0E00208EF855020CF0D0
:100BD0000F0C81F800C0C2F30A028A600B714A78D8
:100BE0000AB1A1F81AC0022B1CD095F89434012B3D
:100BF0001BD0012385F89434286800F099FE00206A
:100C000085F8940438BD01F00F0000EBC0018900A5
:100C100010312944043100EBC00005EB80000124B1
:100C20004475D4E700234B71DFE70220EAE710B5F3
:100C300004460A4611F0800F20D101F00F0000EBAE
:100C4000C0039B0003F514732344191D00EBC0007F
:100C500004EB8000002380F8553202F00F020A7086
:100C600094F89434012B18D0012384F8943420682C
:100C700000F0AAFE002084F8940410BD01F00F00DB
:100C800000EBC0039B0010332344191D00EBC00090
:100C900004EB800001234375DFE70220EDE710B588
:100CA000144601F00F0C0CEBCC01890001F5147116
:100CB000014404310CEBCC0E00EB8E0ECEF860221A
:100CC000CEF864320023CEF868328EF855328EF8B2
:100CD00054C28279012A04D0006800F05BFF002032
:100CE00010BDCEF87042F7E701F00F0101EBC10132
:100CF00000EB8100D0F86802704710B5144601F08F
:100D00000F0C0CEBCC0189001031014404310CEBC9
:100D1000CC0E00EB8E0ECEF82020CEF8243000232F
:100D2000CEF8283001238EF815308EF814C0827961
:100D30009A4204D0006800F02DFF002010BDCEF8CC
:100D40003040F7E738B501F00F050279AA4238D3F1
:100D500004460B4611F0800F1FD101EBC101890041
:100D600001F514710144043103EBC30300EB830369
:100D7000002283F8552201238B700D7094F894346F
:100D8000012B20D0012384F89434206801F047F827
:100D900085B1002084F8940438BD05EBC5018900B5
:100DA00010310144043105EBC50300EB830301223C
:100DB0005A75E0E704F29C42A179206801F028F915
:100DC000E7E70120E8E70220E6E701F00F030279F8
:100DD0009A4230D310B5044611F0800F1ED103EBB8
:100DE000C301890001F514710144043103EBC3020E
:100DF00000EB8202002082F8550200228A700B70FC
:100E000094F89434012B18D0012384F8943420688A
:100E100001F032F8002084F8940410BD03EBC30104
:100E2000890010310144043103EBC30200EB82025C
:100E300001205075E1E7012070470220EDE708B579
:100E400011F0800F0CD101F00F0101EBC1018900FD
:100E500001F5147101440431006800F025FE08BD5D
:100E600001F00F0101EBC10189001031014404318F
:100E7000F2E72DE9F04F83B004460568284601F0FB
:100E800084F810B103B0BDE8F08F0646206801F089
:100E90004DF80028F6D005F50067BB68C3F30D23B5
:100EA000C4F8D434206801F041F810F0020F04D0E7
:100EB0002268536903F002035361206801F036F899
:100EC00010F0100F16D02268936923F0100393617D
:100ED000D5F8208008F00F0908F4F013B3F5802F3F
:100EE0006AD0B3F5402F00F08D802268936943F0FB
:100EF00010039361206801F019F810F4002F40F0FE
:100F00009380206801F012F810F4802F40F0FC80EC
:100F1000206801F00BF80028C0F27D81206801F004
:100F200005F810F4006F09D0BB6813F0010F40F012
:100F30008A812268536903F400635361206800F0DA
:100F4000F5FF10F0006F15D02268536903F00063BD
:100F5000536194F8CC34002B40F07981012184F85E
:100F6000CC1423685B6DC3F38303C4F8D0342046EC
:100F700000F0BEFA206800F0D9FF10F4805F40F066
:100F80006A81206800F0D2FF10F4005F40F0B68163
:100F9000206800F0CBFF10F0080F40F0C7812068F8
:100FA00000F0C4FF10F0800F00F0DA81AB6923F08D
:100FB0008003AB610126C3E147F6F07318EA030F23
:100FC00093D04FEA181A4FEAC903019309EBC90BF2
:100FD00004EB8B0BC8F30A12DBF86012284600F012
:100FE000FBFEDBF86032CAF30A0A5344CBF86032E6
:100FF000DBF86832019A4A4404EB82025344C2F897
:10100000683272E7082204F29C41284600F0E4FEB0
:1010100009EBC90304EB8303D3F86822C8F30A1869
:101020004244C3F8682260E7206800F083FF8046EE
:10103000B14635E005EB49130122C3F8082B4946B8
:101040002046FFF7F1FC3CE005EB49130822C3F80A
:10105000082B49462046FFF769FD35E009EBC90337
:1010600004EB830393F85732012B41D005EB49136E
:101070000222C3F8082B1AF0200F04D005EB491305
:101080002022C3F8082B1AF4005F05D005EB4913A2
:101090004FF40052C3F8082B09F101094FEA580830
:1010A000B8F1000F3FF42DAF18F0010FF4D05FFA44
:1010B00089FB5946206800F04DFF824610F0010F71
:1010C000B8D11AF0080FBFD11AF0100F04D005EBF9
:1010D00049131022C3F8082B1AF0020FCBD06B690A
:1010E00013F0800FBAD07B6843F480637B60B5E770
:1010F00009EBC90304EB8303002283F85722594606
:1011000020460CF061FAB1E7206800F01BFF804632
:10111000B14625E0594620460CF012FA1AF0080FA5
:1011200004D005EB49130822C3F808291AF0100F60
:1011300004D005EB49131022C3F808291AF0400F18
:1011400004D005EB49134022C3F808291AF0020F16
:1011500040D11AF0800F59D109F101094FEA58081E
:10116000B8F1000F3FF4D4AE18F0010FF4D05FFADD
:1011700089FB5946206800F0F6FE824610F0010F08
:10118000CCD009F00F02012101FA02F27B6B23EAB5
:1011900002037B6305EB4913C3F80819A3798B425B
:1011A000B8D109EBC90304EB83031A6AD9690A446D
:1011B0001A62B9F1000FADD109EBC90304EB830347
:1011C0005B6A002BA6D104F29C420121206800F04A
:1011D0001FFF9FE74946284600F080FA09EBC90344
:1011E00004EB8303DB7D012B05D005EB49130222C1
:1011F000C3F80829ADE709EBC90304EB8303002218
:10120000DA75594620460CF0E5F9EEE749462046E6
:10121000FFF7F0FAA0E77B6823F001037B6094F806
:10122000CC34012B08D020460CF0C8F92268536951
:1012300003F00043536171E6002184F8CC1420468A
:1012400000F056F9F2E720460CF0A0F971E62046CE
:101250000CF09CF98EE67B6823F001037B60102183
:10126000206800F03BFA1AE005EB46134FF67F3199
:10127000C3F80819D3F8002922F40012C3F8002992
:10128000C3F8081BD3F8002B22F40012C3F8002B7C
:10129000D3F8002B42F00062C3F8002B013623790B
:1012A000B342E1D8FB6943F00113FB61E37BDBB19F
:1012B000D7F8843043F00B03C7F884307B6C43F0DD
:1012C0000B037B64D5F8003823F4FE63C5F80038BF
:1012D00004F29C42A179206800F09AFE22685369CA
:1012E00003F4805353614CE67A6942F22B031343B3
:1012F0007B613B6943F00B033B61E3E7206800F04F
:1013000079FE206800F002FBE071266801F0C2FD62
:101310000146E279304600F063F920460CF021F9ED
:101320002268536903F40053536131E620460CF000
:1013300012F92268536903F0080353612FE601365E
:101340002379B3420CD906EBC60304EB830393F86D
:101350005732012BF3D1F1B22046FFF770FDEEE7D3
:10136000206800F0E3FD10F4801F25D1206800F014
:10137000DDFD10F4001F58D0012326E0013623794B
:10138000B3421BD905EB4613D3F8002906EBC6037D
:1013900004EB83031B7E012BF0D1002AEEDA06EB6F
:1013A000C60304EB83030122DA7566F07F01C9B23C
:1013B0002046FFF744FDE1E70126E0E72268536994
:1013C00003F480135361D1E7013322799A4227D97C
:1013D00005EB4312D2F8001B03EBC30204EB8202BD
:1013E00092F85822012AEFD10029EDDAD4F8D4245A
:1013F00082EA114212F0010FE6D103EBC30204EBC3
:101400008202012182F85712AA6942F08002AA6181
:101410006A6912F0800FD7D17B6843F400737B6058
:101420002268536903F400135361206800F07EFDC5
:1014300010F0804F10D1206800F078FD10F0040FFC
:101440003FF420AD23685D6815F0040F0DD12268CC
:1014500053682B43536015E520460CF0C1F8226811
:10146000536903F080435361E5E720460CF0BEF872
:10147000EDE710B40468606A31B940EA0240A06246
:1014800000205DF8044B70478C46A36A00EB1340C4
:10149000002308E003F1400104EB8101496800EBFF
:1014A00011400133DBB20CF1FF318B42F2D340EA41
:1014B00002400CF13F0104EB81046060E0E7036847
:1014C0005962002070470000034602680121C0F8FD
:1014D000D814002083F8CC04936943F0006393612F
:1014E000516D024B0B435365704700BF0300001062
:1014F000704782B000230193019B01330193019B4C
:10150000B3F1706F15D80369002BF5DA002301934E
:10151000036943F001030361019B01330193019BC4
:10152000B3F1706F08D8036913F0010FF4D10020F4
:1015300000E0032002B070470320FBE784B010B541
:10154000044603A880E80E009DF81130012B1FD13E
:10155000A36B23F48033A363E2681F4B1340E36063
:10156000E36823F44013E3609DF81830012B0AD0A0
:101570002046FFF7BEFF9DF80E30012B1CD0BDE8C2
:10158000104004B07047E36843F48013E360EFE772
:10159000E36843F04003E3602046FFF7AAFF9DF8AD
:1015A000153023B9A36B43F48033A363E3E7A36B44
:1015B00023F48033A363DEE7E36D9BB2E365E26D62
:1015C000064B1343E365A36843F00603A360A368D7
:1015D00043F02003A360D2E7BFFFBDFF0000EE038E
:1015E000022A0AD00922C36823F47053C360C36877
:1015F00043EA8223C36000207047204B0B44204AFB
:10160000934229D91F4B0B441F4A934226D91F4BA3
:101610000B441F4A934223D91E4B0B441E4A93424C
:1016200020D31E4B0B441E4A93421DD91D4B0B4425
:101630001D4A93421AD31D4B0B441D4A934217D3A4
:101640001C4B0B441C4A934214D31C4B0B441C4AA6
:10165000934211D20722C6E70F22C4E70E22C2E747
:101660000D22C0E70C22BEE70B22BCE70A22BAE734
:101670000922B8E70822B6E70622B4E7405327FF5D
:10168000FF340C00401E1BFF3F420F0000DC0BFF2D
:101690007F4F1200808CF9FE20D6130060B6E5FE65
:1016A0005FE3160000D3CEFE40771B00C05BB3FEA5
:1016B000C091210000CA91FE20753800E05459FE07
:1016C000E09C4100836843F0010383600020704781
:1016D000836823F0010383600020704782B00023F9
:1016E0000193019B01330193019BB3F1706F15D8F6
:1016F0000369002BF5DA00230193890141F02001F1
:101700000161019B01330193019BB3F1706F08D814
:10171000036913F0200FF4D1002000E0032002B091
:1017200070470320FBE782B000230193019B013344
:101730000193019BB3F1706F13D80369002BF5DAA5
:101740000023019310230361019B01330193019B4B
:10175000B3F1706F08D8036913F0100FF4D10020B3
:1017600000E0032002B070470320FBE7D0F8003808
:101770001943C0F8001800207047000084B0F8B585
:10178000044607A880E80E00002306E003F14002AB
:1017900004EB82020021516001330E2BF6D99DF833
:1017A000266006BBD4F8043843F00203C4F80438BA
:1017B000A36B23F40013A363236843F04003236067
:1017C000236843F0800323600023C4F8003E9DF8A3
:1017D0002130012B11D19DF81F304BB9002120463B
:1017E000FFF7C4FF0DE0A36B43F40013A363EBE723
:1017F00001212046FFF7BAFF03E003212046FFF74F
:10180000B5FF10212046FFF769FF054600B101250D
:101810002046FFF788FF00B1012504F5006C002386
:10182000CCF81030CCF81430CCF81C300DE04FF070
:101830009040C2F8000902E00020C2F8000900222E
:101840000A614FF67F328A6001339DF81C1099427D
:101850000ED904EB431202F51061D2F800090028FA
:10186000EADA002BE3D14FF00060C2F80009E6E7A6
:1018700000230AE0BBB14FF09047C2F8007B002282
:1018800002614FF67F3282600133994210D904EB36
:10189000431202F53060D2F8007B002FEADB00270C
:1018A000C2F8007BEBE74FF00067C2F8007BE6E789
:1018B000DCF8103023F48073CCF810300023A361DF
:1018C0006FF0804363619DF81E301BB9A36943F03C
:1018D0001003A361A2690B4B1343A3619DF822304F
:1018E0001BB1A36943F00803A361012E04D028466D
:1018F000BDE8F84004B07047A269034B1343A361ED
:10190000F5E700BF00383C8004000040D0F80838FC
:1019100003F00603022B04D0062B04D02BB90020C1
:10192000704702207047022070470F207047000068
:1019300010B591F800C04B78012B21D000F5006E56
:10194000D0F81C380CF00F040122A24043EA0243F5
:10195000C0F81C3800EB4C10D0F8003B13F4004FDB
:101960000CD1D0F8002B8B68C3F30A03097943EA42
:1019700081431A43134B1343C0F8003B002010BDB2
:10198000D0F81C280CF00F0E03FA0EF39BB2134391
:10199000C0F81C3800EB4C10D0F8003913F4004F9D
:1019A000ECD1D0F800298B68C3F30A03097943EA24
:1019B000814343EA8C531A43024B1343C0F8003966
:1019C000DCE700BF0080001030B40B784A78012AB1
:1019D00026D000EB4313D3F8002B002A52DBD0F8BB
:1019E0003C480A7802F00F024FF0010C0CFA02F2A8
:1019F00024EA0242C0F83C28D0F81C28097801F0FB
:101A00000F010CFA01FC22EA0C42C0F81C28D3F8A2
:101A1000001B234A0A40C3F8002B002030BC70474B
:101A200000EB4313D3F80029002A1EDBD0F83C5802
:101A30000A7802F00F02012404FA02F292B225EAB7
:101A40000202C0F83C28D0F81C28097801F00F01E8
:101A50008C40A4B222EA0402C0F81C28D3F8001972
:101A6000104A0A40C3F80029D7E7D3F8002942F00A
:101A70000062C3F80029D3F8002942F08042C3F87D
:101A80000029D3E7D3F8002B42F00062C3F8002B03
:101A9000D3F8002B42F08042C3F8002B9FE700BF31
:101AA0000078F3EF007833EC10B483B002460023E3
:101AB0000193487801280BD00B7802EB4313D3F83D
:101AC000000B00282DDB002003B05DF8044B7047AD
:101AD0000B7802EB4313D3F80049002C01DB002004
:101AE000F2E7D3F8004944F00064C3F800490B78EA
:101AF00002EB4313D3F8004944F08044C3F8004993
:101B0000019B01330193019C42F210739C42DBD88C
:101B10000B7802EB4313D3F80039002BF0DB0020E5
:101B2000D2E7D3F8000B40F00060C3F8000B0B784D
:101B300002EB4313D3F8000B40F08040C3F8000BD6
:101B4000019B01330193019842F21073984208D827
:101B50000B7802EB4313D3F8003B002BF0DB0020A3
:101B6000B2E70120B0E710B59DF8084084B903330F
:101B70004FEA930E4FF0000C08E000EB023303F540
:101B8000805351F8044B1C600CF1010CF445F4D364
:101B9000002010BDF0B583B00C784B78012B2DD010
:101BA00000EB441C0CF530631D696FF312051D61D9
:101BB0001D696FF3DC451D61002C40F0CE800C697F
:101BC0000CB18C680C618C680C621D69C4F3120442
:101BD0002C431C611C6944F400241C61012A00F0A0
:101BE000DF800B79012B00F0E180DCF8003B43F053
:101BF0000443CCF8003B002003B0F0BD0B6973BB7D
:101C000000EB4413D3F810596FF3DC45C3F81059B7
:101C1000D3F8105945F40025C3F81059D3F81059DA
:101C20006FF31205C3F81059012A54D000EB441485
:101C3000D4F8003943F00443C4F800390B79012B80
:101C400072D00B69002BD6D0D0F83438097801F067
:101C50000F0101228A401343C0F83438CBE700EB70
:101C6000441303F510631D696FF312051D611D69AF
:101C70006FF3DC451D6184B90E698D68AE4200D9F1
:101C80000D611D6945F400251D611D690E69C6F3CE
:101C9000120C45EA0C051D61C6E70D698E683544D6
:101CA000013DB5FBF6F51E691FFA85FC494F07EAB1
:101CB000C54535431D610D79012DE6D11D6925F01E
:101CC000C0451D611D694FEA4C7C0CF0C04C45EAD3
:101CD0000C051D61D9E7CB691BB100EB4412C2F8BA
:101CE00014390B79012B08D000EB4414D4F80039D7
:101CF00043F00443C4F800397DE7D0F8083813F402
:101D0000807F08D100EB4412D2F8003943F0005331
:101D1000C2F80039E8E700EB4412D2F8003943F08A
:101D20008053C2F80039DFE7D0F8083813F4807F19
:101D30000CD1D4F8003943F00053C4F800390092B4
:101D40000B8A0A78C968FFF70EFF54E7D4F8003908
:101D500043F08053C4F80039F1E70C6954B91C69A9
:101D60008D68C5F312052C431C611C6944F40024E2
:101D70001C6133E78D682C44013CB4FBF5F4A4B23C
:101D800004FB05F50D621D69124E06EAC4442C439E
:101D90001C611C690D6AC5F312052C431C611DE70B
:101DA000CA68002A3FF41DAF5A611AE7D0F8083814
:101DB00013F4807F06D1DCF8003B43F00053CCF8ED
:101DC000003B12E7DCF8003B43F08053CCF8003BCB
:101DD0000BE700BF0000F81F10B5844608464FEA25
:101DE000920E02F00302002305E00CF58051096811
:101DF00040F8041B01337345F7D37AB10CF5805CCE
:101E0000DCF800400021CBB2DB0024FA03F300F839
:101E1000013B0131013A92B2002AF4D110BD0B7896
:101E20004A78012A14D000EB4310D0F8002B002A86
:101E300006DB2BB1D0F8003B23F08043C0F8003B19
:101E4000D0F8003B43F40013C0F8003B002070477B
:101E500000EB4310D0F80029002A06DB2BB1D0F8A4
:101E6000003923F08043C0F80039D0F8003943F43A
:101E70000013C0F80039E9E70B784A78012A0ED040
:101E800000EB4310D0F8003B23F40013C0F8003BF4
:101E90000B79023BDBB2012B15D90020704700EB18
:101EA0004310D0F8003923F40013C0F800390B793F
:101EB000023BDBB2012BF0D8D0F8003943F080535D
:101EC000C0F80039E9E7D0F8003B43F08053C0F890
:101ED000003BE2E7D0F8003823F4FE63C0F8003896
:101EE000D0F80038090101F4FE610B43C0F8003856
:101EF00000207047D0F8003E23F00303C0F8003EF6
:101F0000D0F8043823F00203C0F8043800207047EA
:101F1000D0F8003E23F00303C0F8003ED0F80438A8
:101F200043F00203C0F8043800207047426980691A
:101F300010407047D0F8183800F50060C0691840AC
:101F4000000C7047D0F8183800F50060C0691840E0
:101F500080B2704700EB4111D1F8082B00F500600A
:101F6000406910407047D0F81028D0F8343801F09C
:101F70000F0C23FA0CF3DB01DBB2134300EB41102F
:101F800000F51060806818407047406900F001005B
:101F9000704738B50546C36823F0C043C3600129C4
:101FA00013D019BBC36843F08043C36000240A20E8
:101FB00004F0BEF80A342846FFF7E7FF08B1C72C43
:101FC000F5D9C82C14D0002038BDC36843F00053A5
:101FD000C36000240A2004F0ABF80A342846FFF757
:101FE000D4FF0128EDD0C72CF4D9EAE70120EBE7B4
:101FF0000120E9E7D0F800396FF30A03C0F800398F
:10200000D0F8043843F48073C0F8043800207047D7
:1020100010B4046C154B9C4203D9D0F8003B002B44
:1020200016DB0024C0F8104BD0F8104B44F4002409
:10203000C0F8104BD0F8104B44F01804C0F8104B07
:10204000D0F8104B44F0C044C0F8104B012903D025
:1020500000205DF8044B7047C0F8142BD0F8003B0B
:1020600043F08023C0F8003BF2E700BF0A30544F32
:10207000002800F0AF8338B50446036813B113F0AD
:102080003F0F25D0236813F0010F3AD06368002B6F
:1020900018BFB3F5803F02D0B3F5A02F1ED1964AEA
:1020A000136903F03803926A102B21D0182B1BD030
:1020B0006368B3F5803F57D0002B6BD18E4B1A6805
:1020C00022F480321A601A6822F480221A6050E0EA
:1020D00040F2A11189480AF013FBD3E74FF4D37102
:1020E00086480AF00DFBDAE702F00302022ADFD18C
:1020F000814B1B6813F4003F03D06368002B00F092
:102100006B83236813F0020F00F0A080E368092BB3
:1021100018BF012B03D9112B01D0192B60D12369D2
:102120007F2B63D8744A1369926A13F0380366D020
:10213000182B61D0E368002B00F0BD806E490A685F
:1021400022F0190213430B6003F0ECFF05466A4BC3
:102150001B6813F0040F40F0A58003F0E3FF401B61
:102160000228F4D9032068E0634A136843F48033FB
:10217000136063682BB303F0D5FF05465E4B1B6805
:1021800013F4003FBDD103F0CDFF401B6428F5D907
:10219000032052E0B3F5A02F09D0574B1A6822F460
:1021A00080321A601A6822F480221A60E1E7524BEA
:1021B0001A6842F480221A601A6842F480321A6067
:1021C000D7E703F0AFFF05464B4B1B6813F4003F06
:1021D00097D003F0A7FF401B6428F5D903202CE01B
:1021E0004FF4ED7145480AF08BFA98E740F2DB11A5
:1021F00042480AF085FA95E712F0030F9AD13E4B58
:102200001B6813F0040F03D0E368002B00F0E68294
:10221000394A136823F01903E1680B43136003F094
:1022200081FF0546344B1B6813F0040F06D103F001
:1022300079FF401B0228F5D9032038BD2E4A536888
:1022400023F0FE43216943EA01635360236813F0DE
:10225000100F6AD0E369002B18BF802B3FD1236A8F
:102260003F2B42D8244A136903F03803926A082BA3
:102270004AD0182B44D0E369002B7DD01E4A136846
:1022800043F08003136003F04DFF05461A4B1B68B3
:1022900013F4807F67D103F045FF401B0228F5D976
:1022A0000320CAE7144A536823F0FE43216943EA36
:1022B00001635360CAE7104A136823F001031360F7
:1022C00003F030FF05460C4B1B6813F0040FBDD024
:1022D00003F028FF401B0228F5D90320ADE740F2A8
:1022E0002B2106480AF00CFAB9E74FF40B710348AA
:1022F0000AF006FAB6E700BF0044025884DF00087F
:1023000002F00302012AB6D1864B1B6813F4807FCA
:1023100003D0E369802B40F06382824AD36823F0C4
:102320007C53216A43EA0163D360236813F0080FEA
:1023300050D06369012B33D86369002B36D0794ABA
:10234000536F43F00103536703F0ECFE0546754BF2
:102350005B6F13F0020F3DD103F0E4FE401B022837
:10236000F5D9032069E76F4AD36823F07C53216ACB
:1023700043EA0163D360D8E76A4A136823F0800315
:10238000136003F0CFFE0546664B1B6813F4807F95
:10239000CBD003F0C7FE401B0228F5D903204CE741
:1023A00040F26D2160480AF0ABF9C5E75D4A536F12
:1023B00023F00103536703F0B5FE0546594B5B6FED
:1023C00013F0020F06D003F0ADFE401B0228F5D932
:1023D000032032E7236813F0200F32D0A369012BCA
:1023E00015D8A369CBB14F4A136843F480531360E7
:1023F00003F098FE05464B4B1B6813F4005F20D199
:1024000003F090FE401B0228F5D9032015E74FF496
:10241000267145480AF074F9E3E7424A136823F449
:102420008053136003F07EFE05463E4B1B6813F499
:10243000005F06D003F076FE401B0228F5D903208A
:10244000FBE6236813F0040F72D0A368052B18BFB6
:10245000012B13D8354A136843F48073136003F0DB
:1024600061FE0546314B1B6813F4807F0CD103F0ED
:1024700059FE401B6428F5D90320DEE640F2C22154
:1024800029480AF03DF9E5E7A368012B0AD00BBB08
:10249000244B1A6F22F001021A671A6F22F004020D
:1024A0001A6704E01F4A136F43F001031367A36820
:1024B00033B303F037FE05461A4B1B6F13F0020FC0
:1024C00036D103F02FFE401B41F288339842F3D9F6
:1024D0000320B2E6052B09D0124B1A6F22F001023D
:1024E0001A671A6F22F004021A67E0E70D4B1A6FA1
:1024F00042F004021A671A6F42F001021A67D6E727
:1025000003F010FE0546074B1B6F13F0020F0FD0B0
:1025100003F008FE401B41F288339842F3D90320B0
:102520008BE600BF0044025884DF000800480258D0
:10253000636A022B4FD8636A002B00F05981A94AC5
:10254000126902F03802182A00F0F380022B40F0E2
:10255000DA80A36A032B18BF012B01D9022B40D1CB
:10256000236C002B18BF042B03D0082B01D00C2B9D
:102570003DD1636C002B18BF022B3ED1E36A013BB7
:102580003E2B40D8236B043BB3F5FE7F41D8636BF1
:10259000013B7F2B43D8A36B013B7F2B45D8E36BDB
:1025A000013B7F2B47D8A36CB3F5005F49D28D4A1E
:1025B000136823F08073136003F0B4FD0546894B64
:1025C0001B6813F0007F42D003F0ACFD401B0228D3
:1025D000F5D9032031E64FF43D7183480AF090F8B5
:1025E000A9E740F2FD2180480AF08AF8B8E740F2F6
:1025F000FE217D480AF084F8BBE740F2FF217A48CB
:102600000AF07EF8BAE74FF4407177480AF078F89C
:10261000B8E740F2013174480AF072F8B7E740F2C7
:10262000023171480AF06CF8B5E740F203316E48A8
:102630000AF066F8B3E74FF441716B480AF060F8AE
:10264000B1E740F2053168480AF05AF8AFE7654B48
:10265000996A664A0A40A16AE06A41EA00110A439F
:102660009A62226B013AC2F30802616B0139490296
:1026700089B20A43A16B0139090401F4FE010A433E
:10268000E16B0139090601F0FE410A431A63DA6A77
:1026900022F00102DA625A6B6FF3CF02A16C42EAB8
:1026A000C1025A63DA6A22F00C02216C0A43DA6230
:1026B000DA6A22F00202616C0A43DA62DA6A42F4F0
:1026C0008032DA62DA6A42F40032DA62DA6A42F4BA
:1026D0008022DA62DA6A42F00102DA621A6842F0B3
:1026E00080721A6003F01EFD04463E4B1B6813F017
:1026F000007F06D103F016FD001B0228F5D9032048
:102700009BE5002099E5374A136823F08073136036
:1027100003F008FD0446334B1B6813F0007F06D01E
:1027200003F000FD001B0228F5D9032085E50020F9
:1027300083E52C4A916A106B012B5BD001F00303F7
:10274000A26A934258D1C1F30511E36A994255D167
:10275000C0F30802236B013B9A4251D1C0F34622D9
:10276000636B013B9A424DD1C0F30642A36B013B20
:102770009A4249D1C0F30660E36B013B984245D1D0
:10278000184B5B6BC3F3CC03A26C9A4240D0B2F5FA
:10279000005F19D2134AD36A23F00103D36203F016
:1027A000C1FC054603F0BEFCA842FBD00D4A536BAA
:1027B0006FF3CF03A16C43EAC1035363D36A43F0C1
:1027C0000103D362002038E54FF45B71064809F03D
:1027D00097FFDFE70120704701202EE501202CE55F
:1027E00001202AE50044025884DF00080CFCFFFFAA
:1027F000002022E5012020E501201EE501201CE546
:1028000001201AE5012018E5012016E5012014E554
:10281000002012E5754B1B6903F03803102B00F004
:10282000DE80182B0FD0002B40F0DB806F4B1B6835
:1028300013F0200F00F0D7806C4B1B68C3F3C1036B
:102840006B48D840704710B4684B9A6A02F0030294
:102850009C6AC4F30510D96A01F001015B6BC3F3F4
:10286000CC0301FB03F307EE903AF8EE677A14F419
:102870007C7F77D0012A4AD0022A76D0002A40F005
:1028800091805A4B1B6813F0200F23D057490A68D8
:10289000C2F3C102564BD34007EE103AF8EE476A36
:1028A00007EE100AB8EE476A86EE867A0B6BC3F322
:1028B000080306EE903AF8EE666A9FED4E6A67EE00
:1028C000867A76EEA77AF7EE006A77EEA67A27EE9A
:1028D000277A38E007EE100AF8EE476A9FED466A5D
:1028E00086EE267A414B1B6BC3F3080306EE903A43
:1028F000F8EE666A9FED3F6A67EE867A76EEA77A13
:10290000F7EE006A77EEA67A27EE277A1BE007EE4D
:10291000100AF8EE476A9FED396A86EE267A334B45
:102920001B6BC3F3080306EE903AF8EE666A9FED60
:10293000316A67EE867A76EEA77AF7EE006A77EE6E
:10294000A67A27EE277A294B1B6BC3F34623013364
:1029500007EE903AF8EE677AC7EE276AFCEEE67A61
:1029600017EE900A5DF8044B704707EE100AF8EE78
:10297000476A9FED236A86EE267A1C4B1B6BC3F3D6
:10298000080306EE903AF8EE666A9FED1A6A67EE63
:10299000867A76EEA77AF7EE006A77EEA67A27EEC9
:1029A000277AD0E707EE100AF8EE476A9FED136A20
:1029B00086EE267A0D4B1B6BC3F3080306EE903AA6
:1029C000F8EE666A9FED0B6A67EE867A76EEA77A76
:1029D000F7EE006A77EEA67A27EE277AB3E7094882
:1029E0007047094870470248704700BF00440258CA
:1029F0000090D003000000390024744C0024744A75
:102A0000001BB74B00366E0100093D00002800F0A6
:102A10002A8270B50D4604460368013B3E2B00F246
:102A2000DD800F2D00F2E0809E4B1B6803F00F034A
:102A3000AB420BD29B4A136823F00F032B43136066
:102A4000136803F00F03AB4240F00F82236813F0CA
:102A5000040F18D02269944B9B6903F070039A42CB
:102A600011D9002A18BF402A06D0502A04D0602A63
:102A700002D0702A40F0BE808B4A936923F0700325
:102A800021690B439361236813F0080F18D0626922
:102A9000854BDB6903F070039A4211D9002A18BFF5
:102AA000402A06D0502A04D0602A02D0702A40F072
:102AB000A7807D4AD36923F0700361690B43D3611A
:102AC000236813F0100F1CD0A269774BDB6903F465
:102AD000E0639A4215D9002A18BFB2F5806F09D079
:102AE000B2F5A06F06D0B2F5C06F03D0B2F5E06FBB
:102AF00040F08C806C4AD36923F4E063A1690B43F6
:102B0000D361236813F0200F17D0E269664B1B6A6C
:102B100003F070039A4210D9002A18BF402A05D04A
:102B2000502A03D0602A01D0702A75D15E4A136AF8
:102B300023F07003E1690B431362236813F0020F63
:102B400014D0E268584B9B6903F00F039A420DD9E9
:102B5000002A18BF082A02D0093A062A62D8524A27
:102B6000936923F00F03E1680B439361236813F02B
:102B7000010F00F09D80A368002B18BFB3F5006F14
:102B800014D0B3F5106F11D0B3F5206F0ED0B3F59C
:102B9000306F0BD0B3F5406F08D0B3F5506F05D050
:102BA000B3F5606F02D0B3F5706F41D16368032B4A
:102BB00044D83D4A936923F47063A1680B43936141
:102BC0006368022B40D0032B5DD0012B62D0364AC4
:102BD000126812F0040F3CD1012025E140F2A73128
:102BE000324809F08DFD1CE74FF46A712F4809F057
:102BF00087FD19E74FF471712C4809F081FD3BE71F
:102C000040F2D631294809F07BFD52E740F2E73126
:102C1000264809F075FD6DE740F2F931234809F0C7
:102C20006FFD83E740F20C41204809F069FD96E70B
:102C300040F21C411D4809F063FDB7E740F21D4119
:102C40001A4809F05DFDB4E7126812F4003F00F085
:102C50000E8115490A6922F0070213430B6103F044
:102C600061FA0646104B1B6903F038036268B3EB48
:102C7000C20F1DD003F056FA801B41F288339842F0
:102C8000F0D90320D0E0084A126812F0007FE0D1AA
:102C90000120C9E0044A126812F4807FD9D10120D2
:102CA000C2E000BF002000520044025884DF000848
:102CB000236813F0020F15D0E2686F4B9B6903F095
:102CC0000F039A420ED2002A18BF082A03D0093AED
:102CD000062A00F2AA80684A936923F00F03E1688C
:102CE0000B439361654B1B6803F00F03AB420BD999
:102CF000624A136823F00F032B431360136803F039
:102D00000F03AB4240F0B580236813F0040F18D0D6
:102D10002269594B9B6903F070039A4211D2002A31
:102D200018BF402A06D0502A04D0602A02D0702A48
:102D300040F08180504A936923F0700321690B436E
:102D40009361236813F0080F17D062694A4BDB695F
:102D500003F070039A4210D2002A18BF402A05D00F
:102D6000502A03D0602A01D0702A6AD1424AD3691E
:102D700023F0700361690B43D361236813F0100FD4
:102D80001BD0A2693C4BDB6903F4E0639A4214D286
:102D9000002A18BFB2F5806F08D0B2F5A06F05D039
:102DA000B2F5C06F02D0B2F5E06F50D1324AD369AC
:102DB00023F4E063A1690B43D361236813F0200F70
:102DC00017D0E2692C4B1B6A03F070039A4210D2B1
:102DD000002A18BF402A05D0502A03D0602A01D00B
:102DE000702A3AD1244A136A23F07003E1690B4335
:102DF0001362FFF70FFD20498B69C3F30323204AB9
:102E0000D35C03F01F03D8408B6903F00F03D35C3E
:102E100003F01F0320FA03F31A4A13601A4B1860D9
:102E20001A4B186803F01CF970BD40F25E41184857
:102E300009F066FC4FE740F27F41154809F060FC5D
:102E400078E740F29141124809F05AFC8EE740F2CF
:102E5000A3410F4809F054FCA8E740F2B5410C48E3
:102E600009F04EFCBEE7012070470120DCE701209D
:102E7000DAE70120D8E700BF0044025800200052E2
:102E800024DF000800000020040000200C000020C7
:102E900084DF000808B5FFF7BDFC0B4A9369C3F354
:102EA00003230A49CB5C03F01F0320FA03F3926962
:102EB00002F00F02885C00F01F0023FA00F0044AC1
:102EC0001060044A136008BD0044025824DF000863
:102ED000000000200400002008B5FFF7DBFF054BD1
:102EE000DB69C3F30213044AD35C03F01F03D84029
:102EF00008BD00BF0044025824DF000808B5FFF7F2
:102F0000C9FF054BDB69C3F30223044AD35C03F01A
:102F10001F03D84008BD00BF0044025824DF00084A
:102F200070B504460E460368013B3E2B3DD86368EE
:102F3000043BB3F5FE7F3ED8A368013B7F2B40D80E
:102F40002369013B7F2B42D8E368013B7F2B44D8A8
:102F50006369002B18BF402B03D0802B01D0C02BFE
:102F600041D1A369002B18BF202B42D1E369B3F5EF
:102F7000005F44D2574B9B6A03F00303032B00F01E
:102F8000A780544A136823F08063136003F0CAF8E3
:102F90000546504B1B6813F0006F36D003F0C2F8A3
:102FA000431B022BF5D9032093E040F672614A4897
:102FB00009F0A6FBBBE740F67361474809F0A0FBA8
:102FC000BAE740F67461444809F09AFBB8E740F666
:102FD0007561414809F094FBB6E740F676613E48DA
:102FE00009F08EFBB4E740F677613B4809F088FBB7
:102FF000B7E740F67861384809F082FBB6E740F65B
:103000007961354809F07CFBB4E7324B9A6A22F4C7
:103010007C32216842EA01329A626268013AC2F364
:103020000802A1680139490289B20A43E1680139FD
:10303000090401F4FE010A4321690139090601F07E
:10304000FE410A439A63DA6A22F0C00261690A43C8
:10305000DA62DA6A22F02002A1690A43DA62DA6AE5
:1030600022F01002DA62DA6B6FF3CF02E16942EA12
:10307000C102DA63DA6A42F01002DA62C6B91A46AD
:10308000DB6A43F40023D362124A136843F080637F
:10309000136003F047F804460E4B1B6813F0006FF3
:1030A00014D103F03FF8001B0228F5D9032010E0EB
:1030B000012E05D0074AD36A43F40013D362E3E735
:1030C000044AD36A43F48013D362DDE7002000E0B2
:1030D000012070BD00440258D4DF000870B50446DA
:1030E0000E460368013B3E2B41D86368043BB3F5B1
:1030F000FE7F42D8A368013B7F2B44D82369013B64
:103100007F2B46D8E368013B7F2B48D86369002BAF
:1031100018BFB3F5806F05D0B3F5006F02D0B3F5DB
:10312000406F42D1A369002B18BFB3F5007F42D195
:10313000E369B3F5005F44D2574B9B6A03F0030386
:10314000032B00F0A780544A136823F080531360C8
:1031500002F0E8FF0546504B1B6813F0005F36D0C5
:1031600002F0E0FF431B022BF5D9032093E040F669
:10317000DA614A4809F0C4FAB7E740F6DB6147482C
:1031800009F0BEFAB6E740F6DC61444809F0B8FA47
:10319000B4E740F6DD61414809F0B2FAB2E740F623
:1031A000DE613E4809F0ACFAB0E740F6DF613B482B
:1031B00009F0A6FAB6E74FF46E61384809F0A0FAB4
:1031C000B6E740F6E161354809F09AFAB4E7324BC8
:1031D0009A6A22F07C72216842EA01529A6262681D
:1031E000013AC2F30802A1680139490289B20A43CF
:1031F000E1680139090401F4FE010A43216901393A
:10320000090601F0FE410A431A64DA6A22F44062B8
:1032100061690A43DA62DA6A22F40072A1690A4338
:10322000DA62DA6A22F48072DA625A6C6FF3CF02E1
:10323000E16942EAC1025A64DA6A42F48072DA62EF
:10324000C6B91A46DB6A43F48003D362124A136894
:1032500043F08053136002F065FF04460E4B1B6879
:1032600013F0005F14D102F05DFF001B0228F5D9B6
:10327000032010E0012E05D0074AD36A43F0807383
:10328000D362E3E7044AD36A43F40003D362DDE781
:10329000002000E0012070BD00440258D4DF000887
:1032A000F8B50446036813F0006F2FD0436EB3F5F2
:1032B000001F25D015D8E3B1B3F5801F0ED1022130
:1032C0000830FFF72DFE05467DBB904A136D23F4B1
:1032D0004013616E0B431365002619E00126354645
:1032E00016E0B3F5401F01D10025EEE70126354673
:1032F0000EE0864AD36A43F40033D3620025E4E744
:1033000002212830FFF7EAFE0546DDE700263546B4
:10331000236813F4807F19D0A36D042B00F29880EA
:10332000DFE803F005888F0A0A002E46F0E7774AA7
:10333000D36A43F40033D362002D40F08C80734A8B
:10334000136D23F00703A16D0B431365236813F47A
:10335000806F1DD0D4F8A430B3F5800F00F09280B8
:103360007ED8002B00F08880B3F5001F75D10021B6
:1033700004F10800FFF7D4FD0546002D40F08980D8
:10338000624A936D23F46003D4F8A4100B43936551
:10339000236813F4006F1DD0D4F8A830B3F1007F78
:1033A00000F08E807AD8002B00F08480B3F1807F0B
:1033B00071D1002104F10800FFF7B2FD0546002D90
:1033C00040F08580514A936D23F0E063D4F8A81053
:1033D0000B439365236813F0007F14D0E36C202B1C
:1033E0007FD079D833B1102B73D1484AD36A43F4D4
:1033F0000033D362002D7BD1444AD36C23F03003D9
:10340000E16C0B43D364236813F4805F00F08E807B
:10341000E36DB3F5005F00F0D3806ED8002B77D05A
:10342000B3F5805F66D1002104F10800FFF778FD55
:10343000054672E0002104F10800FFF771FD054622
:103440007AE7002104F12800FFF748FE054673E7FC
:10345000012635467AE72E4678E70126354697E776
:10346000B3F5000F89D0B3F5200F86D0B3F5C00FA8
:1034700083D0012635468BE7244AD36A43F40033D0
:10348000D3627AE7002104F12800FFF727FE054602
:1034900073E72E467CE7012635469BE7B3F1806F44
:1034A0008DD0B3F1A06F8AD0B3F1407F87D00126D1
:1034B00035468FE7154AD36A43F40033D3627EE77B
:1034C000002104F12800FFF709FE054677E72E46A4
:1034D00080E70126354696E7302B8BD0012635460E
:1034E00091E7022104F10800FFF71AFD054681E784
:1034F0002E4688E70126354618E0B3F5405F0CD02C
:10350000B3F5804F09D0012635460FE0004402583C
:103510005A4AD36A43F40033D362002D57D1574A35
:10352000136D23F4E043E16D0B431365236813F43B
:10353000005F17D0236EB3F5003F59D04CD843B18C
:10354000B3F5803F45D1012104F10800FFF7E8FC05
:103550000546002D53D1494A136D23F4E023216E13
:103560000B431365236813F4804F19D0D4F8AC30A3
:10357000B3F1005F54D047D843B1B3F1805F40D17D
:10358000012104F10800FFF7CBFC0546002D4ED1C8
:103590003A4A936D23F0E043D4F8AC100B439365A3
:1035A000236813F4004F58D0E36EB3F1805F40D02E
:1035B000B3F1005F43D0002B47D0012635464CE0E5
:1035C000002104F12800FFF789FD0546A5E72E46F6
:1035D000ACE701263546C5E7B3F5802FB9D0B3F582
:1035E000A02FB6D0B3F5403FB3D001263546B9E79A
:1035F000012104F12800FFF771FD0546A9E72E46D9
:10360000B0E701263546CBE7B3F1804FBED0B3F12A
:10361000A04FBBD0B3F1405FB8D001263546BFE71D
:10362000012104F12800FFF759FD0546AEE72E46BB
:10363000B6E7124AD36A43F40033D36205E00121AE
:1036400004F10800FFF76CFC0546A5B90B4A136DA1
:1036500023F04053E16E0B431365236813F0807F22
:103660001DD0A36C032B00F28B81DFE813F00E005A
:10367000090082010E002E46EFE700BF0044025809
:10368000B74AD36A43F40033D362002D40F07B8104
:10369000B34AD36C23F00303A16C0B43D3642368B8
:1036A00013F4800F00F08D81D4F8B030B3F5807F33
:1036B00018BFB3F5007F00F00D81B3F50C5F00F08B
:1036C0000981B3F54C5F00F00581B3F5864F00F03A
:1036D0000181B3F5A64F00F0FD80B3F5C64F00F0B1
:1036E000F980B3F5E64F00F0F580B3F5034F00F035
:1036F000F180B3F5134F00F0ED80B3F5234F00F0E8
:10370000E980B3F5334F00F0E580B3F5434F00F0A7
:10371000E180B3F5534F00F0DD80B3F5634F00F067
:10372000D980B3F5734F00F0D5808E4A934200F0F4
:10373000D18002F58052934200F0CC8002F5805295
:10374000934200F0C78002F58052934200F0C2809D
:1037500002F58052934200F0BD8002F58052934200
:1037600000F0B88002F58052934200F0B38002F579
:103770008052934200F0AE8002F58052934200F0F6
:10378000A98002F58052934200F0A48002F5805295
:10379000934200F09F8002F58052934200F09A809D
:1037A00002F58052934200F0958002F580529342D8
:1037B00000F0908002F58052934200F08B8002F579
:1037C0008052934200F0868002F58052934200F0CE
:1037D000818002F5805293427CD002F58052934260
:1037E00078D002F58052934274D002F58052934211
:1037F00070D002F5805293426CD002F58052934211
:1038000068D002F58052934264D002F58052934210
:1038100060D002F5805293425CD002F58052934210
:1038200058D002F58052934254D002F58052934210
:1038300050D002F5805293424CD002F58052934210
:1038400048D002F58052934244D002F58052934210
:1038500040D002F5805293423CD002F58052934210
:1038600038D002F58052934234D002F58052934210
:1038700030D002F5805293422CD002F58052934210
:1038800028D002F58052934224D002F58052934210
:1038900020D002F5805293421CD002F58052934210
:1038A00018D002F58052934214D002F58052934210
:1038B00010D002F5805293420CD002F58052934210
:1038C00008D002F58052934204D040F27D31264860
:1038D00008F016FF254A136843F48073136002F062
:1038E00021FC0746214B1B6813F4807F05D102F0B1
:1038F00019FCC01B6428F5D90325002D60D1184B95
:103900001B6FD4F8B020534013F4407F0CD0144BFD
:103910001A6F22F44072196F41F480311967196FE0
:1039200021F4803119671A67D4F8B030B3F5807F7D
:103930002BD0002D63D1D4F8B03003F44072B2F52F
:10394000407F33D0064A136923F47C531361044942
:103950000B6FD4F8B020C2F30B0213430B6707E0E0
:103960000044025800030100D4DF00080048025858
:1039700027E0022104F10800FFF7D2FA054684E6A9
:10398000012635468BE62E4689E602F0CBFB07463C
:10399000444B1B6F13F0020FCBD102F0C3FBC01BD3
:1039A00041F288339842F3D90325C2E73D480269C2
:1039B00022F47C523C4901EA131313430361C6E726
:1039C0002E46236813F0010F33D0A36F282B2ED877
:1039D000DFE803F01D2D2D2D2D2D2D2D172D2D2D37
:1039E0002D2D2D2D262D2D2D2D2D2D2D1D2D2D2D1E
:1039F0002D2D2D2D1D2D2D2D2D2D2D2D1D002E462A
:103A0000DFE7012104F10800FFF78AFA0546E5B96E
:103A1000244A536D23F03803A16F0B43536508E02C
:103A2000012104F12800FFF759FB0546EFE70126C5
:103A30003546236813F0020F17D0636F052B2CD87F
:103A4000DFE803F00B05240B0B0B2E46F1E70121F9
:103A500004F10800FFF764FA05460DBB114A536DE7
:103A600023F00703616F0B435365236813F0040FC2
:103A70002DD0D4F89030052B00F24681DFE813F00A
:103A80001C0016003D011C001C001C00012104F15B
:103A90002800FFF723FB0546DFE701263546E4E76C
:103AA0002E46E2E700440258CFFFFF00012104F157
:103AB0000800FFF735FA0546002D40F02881B94A85
:103AC000936D23F00703D4F890100B43936523689C
:103AD00013F0200F1DD0D4F88C30B3F1005F00F04C
:103AE0002A8100F219814BB1B3F1805F40F011815E
:103AF000002104F10800FFF713FA0546002D40F0FD
:103B00002181A84A536D23F0E043D4F88C100B4375
:103B10005365236813F0400F1DD0D4F89830B3F5E7
:103B2000006F00F0238100F212814BB1B3F5806F7A
:103B300040F00A81002104F10800FFF7F1F9054681
:103B4000002D40F01A81974A936D23F4E053D4F886
:103B500098100B439365236813F0800F1DD0D4F8A1
:103B60009C30B3F5804F00F01F8100F20B814BB108
:103B7000B3F5005F40F00381002104F10800FFF776
:103B8000CFF90546002D40F01681864A936D23F447
:103B90006043D4F89C100B439365236813F0080F1F
:103BA0001AD0D4F88030B3F5805F18BFB3F5005F4A
:103BB00004D01BB1B3F5405F40F0FF80D4F88030F3
:103BC000B3F5805F00F0FF80764A536D23F44053D5
:103BD000D4F880100B435365236813F0100F1AD0EC
:103BE000D4F89430B3F5807F18BFB3F5007F04D0CC
:103BF0001BB1B3F5407F40F0F080D4F89430B3F5BA
:103C0000807F00F0F080674A936D23F44073D4F80E
:103C100094100B439365236813F4002F1CD0D4F841
:103C2000A030B3F5803F00F0E880B3F5003F08D046
:103C3000002B40F0E980002104F10800FFF770F943
:103C40000546002D40F0E380564A936D23F440333F
:103C5000D4F8A0100B439365236813F4802F1CD075
:103C6000D4F88430B3F5001F00F0D380B3F5401FC3
:103C700008D0B3F5801F40F0D3804A4AD36A43F49A
:103C80000033D362002D40F0CE80464A536D23F4BA
:103C90004013D4F884100B435365236813F4803F1A
:103CA00010D0236D002B18BFB3F5803F40F0BD80CE
:103CB000236D002B00F0BF80B3F5803F00F0C9807A
:103CC00001263546236813F0005F40F0CB8023685F
:103CD00013F4003F00F0E280E36FB3F5807F00F063
:103CE000CE8040F2C980B3F5007F00F0CD80B3F5FF
:103CF000407F00F0C9800126D0E0012104F12800B6
:103D0000FFF7ECF90546D7E601263546DFE62E46F5
:103D1000DDE601263546FCE6B3F1804F3FF4EEAE1A
:103D2000B3F1A04F3FF4EAAEB3F1405F3FF4E6AE2B
:103D300001263546EDE6022104F12800FFF7CEF911
:103D40000546DBE62E46E4E60126354603E7B3F5F5
:103D5000805F3FF4F5AEB3F5A05F3FF4F1AEB3F58D
:103D6000406F3FF4EDAE01263546F4E6022104F142
:103D70002800FFF7B3F90546E2E62E46EBE60126FA
:103D800035460AE7B3F5004F3FF4FCAEB3F5204FDC
:103D90003FF4F8AEB3F5C04F3FF4F4AE012635461C
:103DA000FBE600BF00440258022104F12800FFF79F
:103DB00095F90546E6E62E46EFE640F2FC419F48BF
:103DC00008F09EFCFAE6022104F12800FFF786F9CC
:103DD00000283FF4F9AE0126F6E64FF4A4619748B7
:103DE00008F08EFC09E7022104F12800FFF776F9BC
:103DF00000283FF408AF012605E7022104F128005E
:103E0000FFF76CF905461CE70126354624E72E46E8
:103E100022E7012104F12800FFF760F9054631E7A8
:103E20000126354639E72E4637E740F2865183486A
:103E300008F066FC3CE7824AD36A43F40033D3625D
:103E400075B97F4AD36C23F48033216D0B43D3645F
:103E500038E7022104F10800FFF762F80546EFE7B2
:103E60002E462FE7022104F12800FFF737F900283A
:103E70003FF42DAF01262AE733B101260EE0704A48
:103E8000D36A43F40033D3623DB96D4A536D23F4D2
:103E90004073E16F0B43536500E02E46236813F433
:103EA000801F0CD0236F002B18BFB3F1004F71D1CE
:103EB000634A136D23F00043216F0B43136523689E
:103EC00013F4001F0CD0A36E002B18BFB3F1807F3A
:103ED00066D15B4A136D23F08073A16E0B431365AB
:103EE000236813F0804F10D0D4F8B430002B18BFE3
:103EF000B3F5004F5AD1524B1A6922F400421A61AD
:103F00001A69D4F8B4100A431A612368002B0FDA37
:103F1000636D002B18BFB3F1805F02D0B3F1005F77
:103F20004AD1474AD36C23F04053616D0B43D364AD
:103F3000236813F4000F11D0D4F88830002B18BF79
:103F4000B3F5800F02D0B3F5000F3BD13C4A536D5F
:103F500023F44003D4F888100B435365636813F0CF
:103F6000010F35D1636813F0020F3AD1636813F083
:103F7000040F3FD1636813F0080F44D1636813F056
:103F8000100F49D1636813F0200F4ED106B10126FE
:103F90003046F8BD40F2E551284808F0B1FB87E70C
:103FA00040F2F951254808F0ABFB92E740F20F616F
:103FB000224808F0A5FB9EE740F219611F4808F06F
:103FC0009FFBAEE740F223611C4808F099FBBDE778
:103FD000002104F10800FEF7A3FF0028C2D0064626
:103FE000C0E7012104F10800FEF79AFF0028BDD0C8
:103FF0000646BBE7022104F10800FEF791FF002806
:10400000B8D00646B6E7002104F12800FFF766F8AD
:104010000028B3D00646B1E7012104F12800FFF7DC
:104020005DF80028AED00646ACE7022104F1280076
:10403000FFF754F80028A9D00126A9E7D4DF00082B
:104040000044025808B5FEF725FF054B1B6AC3F371
:104050000213044AD35C03F01F03D84008BD00BF1D
:104060000044025824DF000810B4794B9A6A9C6A15
:10407000C4F3053CD96AC1F30011DB6BC3F3CC0375
:1040800001FB03F314F47C3F00F0DD8002F0030237
:1040900007EE903AF8EE677A012A4BD0022A00F038
:1040A0009880002A40F0B280694B1B6813F0200F03
:1040B00023D067490A68C2F3C102664BD34007EEBA
:1040C000103AF8EE476A07EE10CAB8EE476A86EE75
:1040D000867A8B6BC3F3080306EE903AF8EE666AB5
:1040E0009FED5D6A67EE867A76EEA77AF7EE006A54
:1040F00077EEA67A27EE277A38E007EE10CAF8EEB8
:10410000476A9FED566A86EE267A514B9B6BC3F346
:10411000080306EE903AF8EE666A9FED4F6A67EE86
:10412000867A76EEA77AF7EE006A77EEA67A27EE21
:10413000277A1BE007EE10CAF8EE476A9FED486A3F
:1041400086EE267A424B9B6BC3F3080306EE903A49
:10415000F8EE666A9FED406A67EE867A76EEA77A99
:10416000F7EE006A77EEA67A27EE277A384A936B45
:10417000C3F3462307EE903AF8EE677AF7EE006A4B
:1041800077EEA67A87EE276ABCEEC66A80ED006AF3
:10419000936BC3F3064307EE903AF8EE677A77EE37
:1041A000A67A87EE276ABCEEC66A80ED016A936B39
:1041B000C3F3066307EE903AF8EE677A77EEA67AD5
:1041C000C7EE276AFCEEE66AC0ED026A5DF8044BB2
:1041D000704707EE10CAF8EE476A9FED226A86EE36
:1041E000267A1B4B9B6BC3F3080306EE903AF8EE5E
:1041F000666A9FED196A67EE867A76EEA77AF7EE21
:10420000006A77EEA67A27EE277AAFE707EE10CAA4
:10421000F8EE476A9FED126A86EE267A0C4B9B6B8E
:10422000C3F3080306EE903AF8EE666A9FED0A6A59
:1042300067EE867A76EEA77AF7EE006A77EEA67AD0
:1042400027EE277A92E70023036043608360BDE78F
:10425000004402580090D003000000390024744C40
:104260000024744A001BB74B10B4794B9A6A9C6ABD
:10427000C4F3055CD96AC1F300215B6CC3F3CC03C2
:1042800001FB03F314F07C7F00F0DD8002F00302F9
:1042900007EE903AF8EE677A012A4BD0022A00F036
:1042A0009880002A40F0B280694B1B6813F0200F01
:1042B00023D067490A68C2F3C102664BD34007EEB8
:1042C000103AF8EE476A07EE10CAB8EE476A86EE73
:1042D000867A0B6CC3F3080306EE903AF8EE666A32
:1042E0009FED5D6A67EE867A76EEA77AF7EE006A52
:1042F00077EEA67A27EE277A38E007EE10CAF8EEB6
:10430000476A9FED566A86EE267A514B1B6CC3F3C3
:10431000080306EE903AF8EE666A9FED4F6A67EE84
:10432000867A76EEA77AF7EE006A77EEA67A27EE1F
:10433000277A1BE007EE10CAF8EE476A9FED486A3D
:1043400086EE267A424B1B6CC3F3080306EE903AC6
:10435000F8EE666A9FED406A67EE867A76EEA77A97
:10436000F7EE006A77EEA67A27EE277A384A136CC2
:10437000C3F3462307EE903AF8EE677AF7EE006A49
:1043800077EEA67A87EE276ABCEEC66A80ED006AF1
:10439000136CC3F3064307EE903AF8EE677A77EEB4
:1043A000A67A87EE276ABCEEC66A80ED016A136CB6
:1043B000C3F3066307EE903AF8EE677A77EEA67AD3
:1043C000C7EE276AFCEEE66AC0ED026A5DF8044BB0
:1043D000704707EE10CAF8EE476A9FED226A86EE34
:1043E000267A1B4B1B6CC3F3080306EE903AF8EEDB
:1043F000666A9FED196A67EE867A76EEA77AF7EE1F
:10440000006A77EEA67A27EE277AAFE707EE10CAA2
:10441000F8EE476A9FED126A86EE267A0C4B1B6C0B
:10442000C3F3080306EE903AF8EE666A9FED0A6A57
:1044300067EE867A76EEA77AF7EE006A77EEA67ACE
:1044400027EE277A92E70023036043608360BDE78D
:10445000004402580090D003000000390024744C3E
:104460000024744A001BB74B2DE9F04383B080460B
:104470000C466B4A6B4B904218BF984214BF4FF0EA
:1044800001094FF0000924D003F50063C31A18BFD7
:10449000012302F5006290421BD0D3B1624BC31AD4
:1044A00018BF012302F50062904212D08BB15F4B1E
:1044B000C31A18BF012302F50062904209D043B12C
:1044C0005B4BC31A18BF012302F54062904200D033
:1044D000DBB923689AB212B1B3F5803F03D3B4219C
:1044E000544808F00DF96368112B18BF012B25D92A
:1044F000B3F5041F22D014D8B3F5881F1ED00CD8F2
:10450000032B07D8022B19D214E0B321494808F035
:10451000F7F8DEE7122B11D00CE0B3F5901F0DD0A9
:1045200008E0B3F5441F09D0B3F5481F06D0B3F532
:10453000081F03D0B5213F4808F0E2F80025BDE090
:10454000E368032B17D8D8F80820690003238B40B1
:1045500022EA0302E3688B401343C8F80830D8F816
:10456000042022EA07026368C3F30013AB4013433D
:10457000C8F80430B2E0C4212E4808F0C1F8E2E7E0
:10458000D6212C4808F0BCF8B1E0B9F1000F26D0D4
:10459000294BB8EB030318BF0123284A90451ED0CE
:1045A000EBB1214BB8EB030318BF012302F5006206
:1045B000904514D09BB11D4BB8EB030318BF0123EA
:1045C00002F5006290450AD04BB1194BB8EB0303DA
:1045D00018BF012302F54062904500D09BB92369C2
:1045E0000F2B15D8EA08083258F8220005F0070109
:1045F00089000F238B4020EA030023698B4003438B
:1046000048F8223085E0E3210A4808F079F8E6E727
:10461000E421084808F074F8E4E7092311E000BF3A
:10462000000002580004025800140258001C0258EE
:104630000028025828E00008000C02580008025820
:1046400000238B4003430232634941F822304FF08C
:10465000B0431A68F34322EA0601606810F4801F31
:1046600001D046EA02014FF0B0421160526803EAFD
:104670000201606810F4001F01D046EA02014FF009
:10468000B0425160D2F8842003EA0201606810F45D
:10469000003F01D046EA02014FF0B042C2F8841058
:1046A000D2F880201340616811F4803F01D046EABF
:1046B00002034FF0B042C2F880300135266836FA66
:1046C00005F200F086800127AF403E40F5D06368D8
:1046D00003F00303013B012B7FF632AF636803F065
:1046E0000303032B0FD0A368022B3FF649AFD8F882
:1046F0000C20690003238B4022EA0302A3688B404D
:104700001343C8F80C30636803F00303022B3FF433
:104710003CAFD8F80020690003238B4022EA030253
:10472000636803F003038B401343C8F800306368E9
:1047300013F4403FC1D0294BD3F8F42042F00202D9
:10474000C3F8F420D3F8F43003F002030193019B83
:10475000AA08911C204B53F8210005F003018900A1
:104760000F238B4020EA03001D4B98453FF468AFB0
:1047700003F5806398451ED003F5806398451CD0EF
:1047800003F5806398451AD003F58063984518D0E7
:1047900003F58063984516D003F58063984514D0DF
:1047A00003F58063984512D003F5006398453FF404
:1047B00034AF0A2345E7012343E7022341E70323FC
:1047C0003FE704233DE705233BE7062339E70723BB
:1047D00037E703B0BDE8F0830004005800440258F6
:1047E0000000025870B5054614460E4621B1012C52
:1047F00008D86CB1AE6170BD4FF4D571064807F0B2
:104800007FFFF4E740F2AB11034807F079FFF0E7D0
:104810003604AE61EFE700BF28E0000803682749CF
:10482000274A934218BF8B422FD0183293422CD084
:104830001832934229D01832934226D0183293422C
:1048400023D01832934220D0183293421DD002F563
:104850005672934219D01832934216D018329342AE
:1048600013D01832934210D0183293420DD0183220
:1048700093420AD01832934207D01832934204D0A0
:1048800023F0FF038365806D704710B4D9B21039EF
:104890000C4AA2FB0142C2F302120B4CA25CC2659D
:1048A0005F2907D96FF3090304338365806D5DF8D1
:1048B000044B70476FF309038365F7E7100002406C
:1048C00028000240ABAAAAAA4CE4000883699BB95D
:1048D000836A012B0AD0022B02D00BB10020704753
:1048E000C36A13F0807F2AD100207047C36AB3F1F6
:1048F000C07F26D000207047B3F5005F0AD0836ADE
:10490000022B26D9032B26D1C36A13F0807F24D132
:1049100000207047836A032B03D8DFE803F01404F8
:10492000140A00207047C36A13F0807F0DD1002065
:104930007047C36AB3F1C07F09D0002070470120DF
:104940007047012070470120704701207047012007
:104950007047012070470020704701207047000019
:1049600003682149214A934218BF8B4227D0143251
:10497000934224D01432934221D0143293421ED059
:10498000143293421BD01432934218D01432934203
:1049900015D0DAB2103A1649A1FB021212091549D4
:1049A0001944A8291ED9144B13449B000366134BCA
:1049B000436602F01F020123934083667047DBB217
:1049C000083B0F4AA2FB03230E4A02EB131292008C
:1049D00002660D4A4266C3F30413012202FA03F38E
:1049E000836670470832DEE7085402581C540258A8
:1049F000ABAAAAAAF0FBFDBF00820010800802400B
:104A0000CDCCCCCC009600168058025801794A1EB5
:104A1000072A2BD830B40368154D164CA34218BF93
:104A2000AB4218D01434A34215D01434A34212D090
:104A30001434A3420FD01434A3420CD01434A34234
:104A400009D01434A34206D00B4B0B449B00C36621
:104A50000A4B036705E00A4B0B449B00C366094BF6
:104A6000036701239340436730BC7047704700BF22
:104A7000085402581C5402583F820010400902405A
:104A80003F9600164059025870B5044601F04AFBA3
:104A9000002C00F0DC82054623688849884A8B4256
:104AA00018BF934246D01832934243D018329342F3
:104AB00040D0183293423DD0183293423AD0183247
:104AC000934237D01832934234D002F55672934253
:104AD00030D0183293422DD0183293422AD0183257
:104AE000934227D01832934224D01832934221D0D7
:104AF000183293421ED0183293421BD0714A93420F
:104B000018D01432934215D01432934212D014327A
:104B100093420FD0143293420CD01432934209D0F6
:104B20001432934206D01432934203D0E6216648F1
:104B300007F0E6FDA368002B18BF402B02D0802BA6
:104B400040F09980E368B3F5007F18BF002B40F078
:104B500097802369B3F5806F18BF002B40F09580D4
:104B60006369002B18BFB3F5006F03D0B3F5805F06
:104B700040F09080A369002B18BFB3F5005F03D00D
:104B8000B3F5804F40F08B80E369002B18BFB3F57D
:104B9000807F08D0202B06D0B3F5802F03D0B3F54B
:104BA000402F40F08180236A002B18BFB3F5803F6F
:104BB00005D0B3F5003F02D0B3F5403F79D123686B
:104BC0003E493F4A934218BF8B4200F0838018321F
:104BD00093427FD0183293427CD01832934279D0DE
:104BE0001832934276D01832934273D018329342DF
:104BF00070D002F5567293426CD01832934269D04D
:104C00001832934266D01832934263D018329342DE
:104C100060D0183293425DD0183293425AD0183285
:104C2000934257D0274A29498B4218BF93420CBF61
:104C30000122002200F0A68125498B4200F0A281CA
:104C400014318B4200F09E8114318B4200F09A8126
:104C500014318B4200F0968114318B4200F0928126
:104C600014318B4200F08E8140236365032384F866
:104C700035300120BDE0E721134807F041FD61E731
:104C8000E821114807F03CFD63E7E9210E4807F0F1
:104C900037FD65E7EA210C4807F032FD6AE7EB21B2
:104CA000094807F02DFD6FE7EC21074807F028FDC4
:104CB00079E7ED21044807F023FD80E7100002406A
:104CC00028000240085402587CE000081C54025896
:104CD000305402586368892B5ED8636A002B18BF72
:104CE000042B5ED1636AD3B1A36A032B5ED8E36A57
:104CF000002B18BFB3F5000F05D0B3F1807F02D0B1
:104D0000B3F1C07F57D1236B002B18BFB3F5001F41
:104D100005D0B3F5800F02D0B3F5C00F50D10223F8
:104D200084F83530002384F8343023688F49904A62
:104D3000934218BF8B4248D01832934245D0183264
:104D4000934242D0183293423FD0183293423CD023
:104D50001832934239D01832934236D002F5567247
:104D6000934232D0183293422FD0183293422CD033
:104D70001832934229D01832934226D018329342E7
:104D800023D01832934220D0183293421DD01A6893
:104D900022F001021A601CE0F121764807F0B0FC15
:104DA0009BE7F221734807F0ABFC9BE7F7217148C2
:104DB00007F0A6FC9BE7F8216E4807F0A1FCA2E7EC
:104DC000F9216C4807F09CFCA9E71A6822F001025F
:104DD0001A6023681A6812F0010F0BD001F0A2F9D3
:104DE000401B0528F5D920236365032384F835305B
:104DF000012070BD1A6860491140A268E068024352
:104E00002069024360690243A0690243E0690243EA
:104E1000206A02430A43616A042900F092806168B3
:104E2000522900F298803F29C0F090803F395348C2
:104E300020FA01F111F0010F01D042F480121A6042
:104E40002668756925F00705636A1D43042B08D1A0
:104E5000A36A1D43E36A23B12046FFF737FD00280C
:104E60007ED175612046FFF7D9FCE36D03F01F0288
:104E70003F239340836023683C493D4A934218BFD7
:104E80008B4242D0183293423FD0183293423CD0EA
:104E90001832934239D01832934236D018329342A6
:104EA00033D01832934230D002F5567293422CD050
:104EB0001832934229D01832934226D018329342A6
:104EC00023D01832934220D0183293421DD018328A
:104ED00093421AD01832934217D0294A934214D0E1
:104EE0001432934211D0143293420ED014329342B2
:104EF0000BD01432934208D01432934205D01432AE
:104F0000934202D01432934215D12046FFF728FD78
:104F1000A368802B00F08E80236E22791A60636E66
:104F2000A26E5A606368013B072B40F28680002323
:104F3000E3662367636700206065012384F83530EA
:104F400057E7E16A206B01430A4368E729390529DD
:104F50003FF675AF71E7743903293FF670AF6CE720
:104F600040236365012084F8350042E710000240C9
:104F7000280002407CE000083F8010FE0F030F0075
:104F8000085402588AB9334A93420ED014329342DD
:104F90000BD01432934208D01432934205D014320D
:104FA000934202D01432934202D16368112B36D857
:104FB000022384F83530002384F8343021680A68ED
:104FC0006FF31012A368402B32D0802B2DD000231A
:104FD000E06843EAD003206943EAD003606943EA0A
:104FE000D003A06943EAD003E06943EAD003206A12
:104FF00043EA101313430B602268174B1344174AFC
:10500000A2FB03231B099B00E3652046FFF706FC78
:10501000E26D02F01F0101228A4042602BE740F25C
:105020006B110F4807F06CFBC2E74FF48043CFE7EA
:105030001023CDE7002363606EE72046FFF7E6FC10
:10504000E36E00221A60236F626F5A6073E70120DB
:10505000CFE600BF30540258F8ABFDA7CDCCCCCC86
:105060007CE0000870B5044601F05CF8002C00F00C
:105070008F81054694F83530022B06D08023636576
:10508000002384F83430012070BD23688B498C4A9A
:10509000934218BF8B4230D0183293422DD0183231
:1050A00093422AD01832934227D01832934224D008
:1050B0001832934221D0183293421ED002F5567214
:1050C00093421AD01832934217D01832934214D018
:1050D0001832934211D0183293420ED018329342B4
:1050E0000BD01832934208D01832934205D01A6878
:1050F00022F00E021A60266809E01A6822F01E02E9
:105100001A602268536923F080035361266823687C
:105110006A496B4A934218BF8B4242D0183293427D
:105120003FD0183293423CD01832934239D01832D3
:10513000934236D01832934233D01832934230D053
:1051400002F5567293422CD01832934229D018326D
:10515000934226D01832934223D01832934220D063
:10516000183293421DD0183293421AD0183293420B
:1051700017D0544A934214D01432934211D01432AF
:1051800093420ED0143293420BD01432934208D083
:105190001432934205D01432934202D01432934217
:1051A00004D1226E136823F480731360236843498B
:1051B000434A934218BF8B422FD0183293422CD0CF
:1051C0001832934229D01832934226D01832934293
:1051D00023D01832934220D0183293421DD002F5CA
:1051E0005672934219D01832934216D01832934215
:1051F00013D01832934210D0183293420DD0183287
:1052000093420AD01832934207D01832934204D006
:105210001A6822F001021A6003E01A6822F0010203
:105220001A60336813F0010F0ED000F07BFF431BB0
:10523000052BF6D920236365032384F8353000233A
:1052400084F8343001201FE723681C491C4A93422C
:1052500018BF8B4238D01832934235D0183293425F
:1052600032D0183293422FD0183293422CD01832B9
:10527000934229D01832934226D002F556729342B7
:1052800022D0183293421FD0183293421CD01832C9
:10529000934219D01832934216D01832934213D049
:1052A0001832934210D0183293420DD0A16DE36DA5
:1052B00003F01F02012393404B600CE010000240FA
:1052C0002800024008540258A16DE36D03F01F024C
:1052D0003F2393408B6023682E492F4A934218BF87
:1052E0008B4242D0183293423FD0183293423CD086
:1052F0001832934239D01832934236D01832934242
:1053000033D01832934230D002F5567293422CD0EB
:105310001832934229D01832934226D01832934241
:1053200023D01832934220D0183293421DD0183225
:1053300093421AD01832934217D0184A934214D08D
:105340001432934211D0143293420ED0143293424D
:105350000BD01432934208D01432934205D0143249
:10536000934202D0143293420BD1636EA26E5A6004
:10537000E36E33B11A6822F480721A60236F626F91
:105380005A60012384F83530002084F834007BE62D
:10539000012079E61000024028000240085402581B
:1053A000002800F0278108B5024690F83530022B1E
:1053B00003D080234365012008BD03688F489049CE
:1053C0008B4218BF83420CBF0120002065D01831EA
:1053D0008B4262D018318B425FD018318B425CD047
:1053E00018318B4259D018318B4256D018318B422C
:1053F00053D001F556718B424FD018318B424CD0AF
:1054000018318B4249D018318B4246D018318B422B
:1054100043D018318B4240D018318B423DD01831E7
:105420008B423AD0196821F00E0119601368734855
:1054300073498B4218BF83426AD072498B4267D04E
:1054400018318B4264D018318B4261D018318B42B5
:105450005ED018318B425BD018318B4258D001F5A9
:1054600056718B4254D018318B4251D018318B4237
:105470004ED018318B424BD018318B4248D0183166
:105480008B4245D018318B4242D018318B423FD0ED
:10549000196821F0010119603EE0042182F83510FD
:1054A00080BB584A93422DD0183293422AD01832EA
:1054B000934227D01832934224D01832934221D0FD
:1054C000183293421ED002F5567293421AD0183207
:1054D000934217D01832934214D01832934211D00D
:1054E000183293420ED0183293420BD018329342A6
:1054F00008D01832934205D01A6822F001021A60CF
:10550000002059E71A6822F001021A60002053E7D0
:10551000196821F0010119601368384838498B4235
:1055200018BF834242D018318B423FD018318B4292
:105530003CD018318B4239D018318B4236D01831DB
:105540008B4233D018318B4230D001F556718B42EB
:105550002CD018318B4229D018318B4226D01831EB
:105560008B4223D018318B4220D018318B421DD072
:1055700018318B421AD018318B4217D022498B42F6
:1055800014D014318B4211D014318B420ED014310F
:105590008B420BD014318B4208D014318B4205D092
:1055A00014318B4202D014318B4217D1116E0B682B
:1055B00023F480730B60906DD36D03F01F01012302
:1055C0008B404360536E916E5960D36E33B119684E
:1055D00021F480711960136F516F5960012382F8B3
:1055E0003530002382F83430136D2BB110469847C4
:1055F0000020E1E6012070470020DDE610000240B7
:10560000280002404000024008540258F0B583B020
:105610000446002301937D4B1D687D4BA3FB05359C
:10562000AD0A876D3E68D7F800C0036879497A48AB
:10563000834218BF8B420CBF0120002061D0774A03
:1056400093425ED0183293425BD01832934258D0C6
:105650001832934255D01832934252D018329342A6
:105660004FD002F5567293424BD01832934248D035
:105670001832934245D01832934242D018329342A6
:105680003FD0183293423CD01832934239D018326E
:10569000934236D06249634A934218BF8B4212D07C
:1056A000614A93420FD0143293420CD01432934289
:1056B00009D01432934206D01432934203D01432EC
:1056C000934240F05F821A68E16D01F01F010420EF
:1056D000884010EA0C0F00F0A58212F0040F00F0D1
:1056E000A182786012F4004F00F0588212F4803FDB
:1056F00040F04E82A36C002B00F044822046984775
:1057000040E2E26D02F01F0108228A40324241D09D
:1057100070BB424A93422BD01832934228D01832A1
:10572000934225D01832934222D0183293421FD090
:10573000183293421CD002F55672934218D0183298
:10574000934215D01832934212D0183293420FD0A0
:10575000183293420CD01832934209D01832934237
:1057600006D01832934203D01A68C2F3C00202E096
:105770001A68C2F380026AB11A6822F004021A6041
:10578000E36D03F01F0208239340BB60636D43F099
:1057900001036365E26D02F01F0226FA02F313F0C3
:1057A000010F47D023681B481B498B4218BF834217
:1057B0003CD018318B4239D018318B4236D0183159
:1057C0008B4233D018318B4230D018318B422DD0E0
:1057D00018318B422AD001F556718B4226D01831F0
:1057E0008B4223D018318B4220D018318B421DD0F0
:1057F00018318B421AD018318B4217D018318B4296
:1058000014D018318B4211D01B6813E00400002023
:10581000B5814E1B100002402800024040000240AB
:10582000085402581C540258305402585B6913F053
:10583000800F3BD1E36D03F01F03042202FA03F350
:1058400033423FD02268954895498A4218BF824228
:1058500034D018318A4231D018318A422ED01831D2
:105860008A422BD018318A4228D018318A4225D05A
:1058700018318A4222D001F556718A421ED0183161
:105880008A421BD018318A4218D018318A4215D06A
:1058900018318A4212D018318A420FD018318A4208
:1058A0000CD018318A4209D013680BE001239340D1
:1058B000BB60636D43F002036365BBE7126812F0DF
:1058C000020F3DD1E36D03F01F03102202FA03F330
:1058D00033425FD02268714871498A4218BF8242C0
:1058E00034D018318A4231D018318A422ED0183142
:1058F0008A422BD018318A4228D018318A4225D0CA
:1059000018318A4222D001F556718A421ED01831D0
:105910008A421BD018318A4218D018318A4215D0D9
:1059200018318A4212D018318A420FD018318A4277
:105930000CD018318A4209D01268C2F3800208E004
:10594000BB60636D43F004036365BBE71268C2F399
:10595000C002FAB1BB6023681A6812F4802F0DD020
:105960001B6813F4002F04D1236C9BB12046984789
:1059700010E0A36C73B1204698470BE01A6812F44C
:10598000807F03D11A6822F008021A60236C0BB1E1
:1059900020469847E36D03F01F03202202FA03F329
:1059A000334200F0918022683C483D498A4218BF4A
:1059B00082422ED018318A422BD018318A4228D008
:1059C00018318A4225D018318A4222D018318A42B1
:1059D0001FD018318A421CD001F556718A4218D066
:1059E00018318A4215D018318A4212D018318A42B1
:1059F0000FD018318A420CD018318A4209D01831A0
:105A00008A4206D018318A4203D01268C2F340029B
:105A100002E01268C2F30012002A55D0BB6094F86D
:105A20003530042B0ED023681A6812F4802F39D039
:105A30001B6813F4002F2CD1636C002B44D020463C
:105A4000984741E02268136823F016031360226828
:105A5000536923F080035361236CB3B12268136848
:105A600023F008031360E36D03F01F023F2393400C
:105A7000BB60012384F83530002384F83430236D73
:105A8000002B7FD0204698477CE0A36C002BE5D10B
:105A9000E9E7E36BC3B12046984715E010000240E8
:105AA000280002401A6812F4807F09D11A6822F097
:105AB00010021A60012384F83530002384F8343052
:105AC000E36B0BB120469847636D002B5AD0636D92
:105AD00013F0010F52D0042384F83530236896491F
